:020000040000FA
:100600008331042BFF3FFF3F8331062B20008331D2
:10061000092B83313523833123008C0121000C11F8
:100620000C128C1222000C1122000C128C120930B8
:10063000F6001E30F500E430890B1C2BF50B1C2B4B
:10064000F60B1C2B003222000C168C160930F6001B
:100650001E30F500E430890B2B2BF50B2B2BF60B02
:100660002B2B0032142B8331042BE030F0001F3091
:10067000F100833153238331D030F200CA30890B2B
:100680003F2BF20B3F2B3100151515139512FF3040
:1006900091001F3092009301940183315F238331D5
:1006A0003100151108003100151370089100710810
:1006B00092001516151583315F23833108005530DC
:1006C00031009600AA30960095140800FF3FFF3FC6
:00000001FF
