:020000040000FA
:1020000090314A28FF3FFF3F7E1490312000921DFF
:10201000482824001C1D22289C1E152845308600B7
:10202000233087001908810046287A08F03E860090
:1020300087012230873D010899000130F0007008C7
:10204000FA0745289C1E3E287B0803192D281908ED
:10205000F0007008FA00FB0146287A08F03EF00014
:10206000F1012230F13D70088600710887001908DF
:1020700081000130F0007008FA0746281908F000C6
:102080007008FA00FB01FB0A1E181D1620009211B1
:102090007E10090090314C28F030840022308500F9
:1020A0000030FE000130FF009E31FD26FA01FB01E9
:1020B0002000C301C401C501C601C701C8017E10CB
:1020C00020009231472AF0308600223087005831B4
:1020D000010807392000B5003508BD003D08031987
:1020E000C928BD1C81280030943150249031FD3026
:1020F0002000B500F03086002230870058313508C6
:1021000081053D1CBA28F030860022308700583106
:102110000108F839B5003508BA000310BA0C0310ED
:10212000BA0C0310BA0C3A08B5003508B7000130F4
:10213000B702013097317D27903120003708F03EFB
:10214000860087012230873D0108B5003508AA00C6
:102150003A08953147259031023097317D279031EB
:10216000FE302000B500F030860022308700583164
:10217000350881053D1DC9289331EB239031FB3093
:102180002000B500F0308600223087005831350835
:1021900081051030860023308700010803190800EC
:1021A000E830B5003508AA000D3097315A27903134
:1021B0001030860023308700011C18292000B80148
:1021C000B90111308600233087000108B500B6013F
:1021D0003508B8043608B9040830B835B90D890B8C
:1021E000ED2812308600233087000108B500B601C3
:1021F0003508B8043608B904003097317D2790318E
:102200002000A401A40A3908A6003808A50000305F
:10221000963142269031023097317D279031FE3041
:102220002000B50010308600233087003508810576
:102230001030860023308700811C4E2900309731F2
:102240007D2790312000A4010030A500A6000030B9
:1022500096314226903120002508BC002408BB009E
:10226000023097317D27903112308600233087006D
:1022700020003B0881000830BC36BB0C890B3C2990
:1022800011308600233087003B088100FD30B50007
:1022900010308600233087003508810501309731E2
:1022A0007D2790312000AA01AB01AB0A00309631A6
:1022B000A8269031023097317D2708003030860003
:1022C000233087000103031DAF29303086002330FF
:1022D000870081018B13200092113230860000307C
:1022E00087000630AB0000301E00AB0B74290630AF
:1022F000AB002B08B8000630AB002B08A200323030
:102300009731C02791312000B901380839020318EC
:10231000A7293908323E860087010108AB00390839
:10232000AC00AD013130AE002330AF002C082E07D9
:10233000B0002D082F3DB10030088600310887001D
:102340002B0881000130AB002B08B90785294430E8
:10235000860023308700010896317826913142307B
:102360008600233087000108031D0D2A2A2A220037
:102370000C0C2000AB002B0C0139AB000130AB067C
:10238000AB0DAB0D22000C0820002B06FB39092AEF
:1023900022000C0E01392000AB000130AB06AB0E61
:1023A00022000C0820002B06EF39092A2200FA2906
:1023B00022000C0C2000AB002B0C0139AB000130CB
:1023C000AB06AB0DAB0D22000C0820002B06FB3931
:1023D0002B0622008C000C0E01392000AB000130CE
:1023E000AB06AB0E22000C0820002B06EF392B06A3
:1023F00022008C000C0E2000AB002B0C0139AB002E
:102400000130AB06AB0EAB0D22000C0820002B06F2
:10241000DF392B0622008C00252A4230860023302B
:10242000870001082000AB00AC012C08003A03191A
:102430001A2AD8292B08013A0319B729033A031994
:10244000C829013A0319D629D829423086002330F9
:1024500087008101AB308600233087000108031913
:102460000800AB3086002330870002300106031DD0
:10247000452A9F31E227913168302000AB00E430DB
:10248000890B402AAB0B402A0000010008000530F0
:102490002000C2000F30C100F130890B4D2AC10B62
:1024A0004D2AC20B4D2A44308600233087001E304F
:1024B0008100AB30860023308700810121000C11A0
:1024C0000C128C120D1322000D130C150C168C1609
:1024D000F20101309431B5249231013097317D27DA
:1024E00092312000AA01AB01AB0A00309631A82638
:1024F0009231023097317D279231F201F20A013098
:102500009431B524923124009D124430860023304A
:1025100087000108963178269231EF30860023300B
:1025200087000630810001309F31C427923101308D
:102530009F31AC2792310C308600233087004D301C
:1025400081000D30860023308700443081000E303A
:10255000860023308700413081000F308600233011
:102560008700433081001C308600233087004F30C5
:1025700081001D30860023308700443081001E30EA
:10258000860023308700413081001F3086002330D1
:102590008700433081002C30860023308700413093
:1025A00081002D30860023308700443081002E309A
:1025B000860023308700433081003C308600233082
:1025C0008700553081003D30860023308700493038
:1025D00081003E3086002330870044308100640053
:1025E0009031632092319F3194279231933182232D
:1025F00092319F312527923191315E219231EF2A1C
:102600002000B801B901F201F20A01309431B52479
:102610009331003097317D27933101309F31C427AA
:102620009331023097317D27933100309F317F27DE
:10263000933100302000AF00B0009F315927933113
:1026400009302000B5001E30B400E430890B262B81
:10265000B40B262BB50B262B000000302000BA004F
:102660000830BB003A08B8043B08B9043908B00088
:102670003808AF009F315927933105302000B5004D
:102680000F30B400F130890B432BB40B432BB50B47
:10269000432B97319F27933173082000B7007208AE
:1026A000B600023037024D300319360203185C2B96
:1026B0003A08B8063B08B9060130BB36BA0C890B9C
:1026C0005D2B3A083B04031D322B003097317D27E8
:1026D000933120003908B0003808AF009F315927E6
:1026E0009331023097317D27933105302000B500BA
:1026F0000F30B400F130890B7B2BB40B7B2BB50B67
:102700007B2B080020308600233087000108031946
:10271000D12B2030860023308700010802392000A9
:10272000BC003C08BE000310BE0C3E089F317F2752
:10273000933109302000BD001E30BC00E430890B0D
:102740009F2BBC0B9F2BBD0B9F2B000097319F270E
:10275000933173082000C0007208BF0029302000A8
:10276000BD009630BC007F30890BB42BBC0BB42B62
:10277000BD0BB42B223086002330870020003F0899
:1027800081004008BC0021308600233087003C08CF
:102790008100FE30BC0020308600233087003C08DA
:1027A00081054130860023308700010803190800A5
:1027B00041308600233087000103031D0800933158
:1027C0000023FE302000BC0041308600233087000B
:1027D0003C0881050800013097317D2793312000A6
:1027E000AD01A40105309631D72693310130200088
:1027F000AA002A08AD070C302D02031CF12B023071
:1028000097317D279331013097317D279331200017
:10281000AD01A40102309631D72693312000AA00E1
:102820002330AC002D08073CAB00031CAC032B0885
:1028300086002C0887002A0881000230AA002A0896
:10284000AD0717302D02031C092C023097317D276C
:102850009331013097317D2793312000AD01AD0ACE
:10286000A40100309631D72693312000AA002330EE
:10287000AC002D08073CAB00031CAC032B08860002
:102880002C0887002A0881000230AA002A08AD0718
:1028900018302D02031C302C023097317D270800A0
:1028A0002000B300013097317D2794312000B4011E
:1028B0003408AA00AB013308AC00AD010730AE000C
:1028C0002330AF002C082E07B0002D082F3DB1009B
:1028D0002A08300286002B08313B87000108B2002D
:1028E0003208A40004309631D726943102302000FB
:1028F000AA002A08B40717303402031C582C0230EF
:1029000097317D279431013097317D279431200014
:10291000B401B40A3408AA00AB013308AC00AD011D
:102920000730AE002330AF002C082E07B0002D0872
:102930002F3DB1002A08300286002B08313B87006A
:102940000108B2003208A40001309631D726943134
:1029500002302000AA002A08B40718303402031CF1
:102960008A2C023097317D270800F5008B13230055
:102970000E08C8398E0022000E08E3398E002100AF
:102980000E1622000E148E140E08CB398E00210074
:102990000E08D8398E00320095103C008F0114309B
:1029A000A10019303D00A5001830A20001303C0004
:1029B0008F007208031DDE2C8030DF2CC030240015
:1029C0009400EB2C2330E92C2130E92C2230E92C27
:1029D00020309500012D7508F300F4017408003AC9
:1029E0000319F32CE82C7308003A0319E22C013A7E
:1029F0000319E82C033A0319E42C013A0319E62CD5
:102A0000E82C8B170800F700750886008701810104
:102A1000750A8600870181017508023E86008701DC
:102A200081017708F6007508860087017608810421
:102A30007508860087010310810D0310810D72084F
:102A4000031D292D0330F6007508860087017608DE
:102A500081047508860087010310810D7408F90050
:102A60007308F8007808F6007508023E86008701B2
:102A7000760881040830F936F80C890B3B2D78086C
:102A8000F600750A86008701760881040800200098
:102A9000AF002F089F31342795312000AB002B0861
:102AA000AC002F089F31092795312000AB002B087F
:102AB000AD002D08031D612D0430AB002B08AE00C6
:102AC000632DAE01AE0AB001B00A2C083002031823
:102AD000742DA40100309631D726953101302000A5
:102AE000AB002B08B007652D2A08AB002B08A4000B
:102AF0002E089631D726953101302000AB002B08E7
:102B0000B0070D30300203180800A4010030792D01
:102B1000F400B12D21008E1723008E1721001D080F
:102B200003395C389D00080021008D1723008D17A4
:102B300021001D0803393C389D00080022001716AB
:102B4000971621001D080339F4389D000800210064
:102B50008C1623008C1621001D08033914389D00A3
:102B600008007408F200F3017308003A0319B92D44
:102B7000C72D7208003A03198A2D013A0319942DC2
:102B8000033A03199E2D013A0319A72DC72D0800FA
:102B9000F5007308860087018101730A86008701AA
:102BA00081017508F40073088600870174088104A8
:102BB000730886008701810EF03081057208F400E9
:102BC000730A8600870174088104730A86008701EE
:102BD000810E0F308105730A860087010108F40019
:102BE00073088600870174088104730A86008701D0
:102BF00081017208F400730A860087017408810459
:102C0000730A86008701810EF030810508002000DC
:102C1000A0007508F8007808F20020089F316C27A2
:102C200096319E31F42696317408240099002000D4
:102C3000921D172E9211A1017708210203183F2E31
:102C400024009E152000921D222E921124001908A6
:102C5000F800200021087607F9007908860087012E
:102C60007808810024001C109E121E162000921D60
:102C7000362E92110130F8007808A1071C2E9E31E3
:102C8000EB2608002000A900AA01AB012408A70038
:102C90002708F2002608F4002508F3002C30A800CD
:102CA0002808F500290895310325963103302000C6
:102CB000A7002708F5002C30973105279631200012
:102CC0002D08A700A8012708AA042808AB0408308B
:102CD000AA35AB0D890B682E2E08A700A80127087E
:102CE000AA042808AB042B08A5002A08A4000800A1
:102CF000F3008B1323008E110E1321008E150E1777
:102D00003200151124009C131C133C008F01730822
:102D1000F2007208F4000310F40D740824009A0005
:102D20001B303D00A60016303C009E001A303D00CE
:102D3000A30013303C009D00363024009D009E010E
:102D40009F0120009211210092150B178B1708008C
:102D50002000AD00AF012D08AC002C08AF0403101B
:102D6000AF0D2F140310AF0D2A08AC002C08AF04D0
:102D70000310AF0D2B08AC002C08AF040310AF0DEF
:102D80000310AF0D0310AF0DAE012F08AC002C08DF
:102D9000A4000D309631D726963101302000AC00CA
:102DA0002C08AE070C302E0203180800C52E200098
:102DB000A500A801A901A701A6012408F800780828
:102DC000F2002830F9007908F30025089531C8256C
:102DD00096310230F8007808F50028309731052741
:102DE00020002808F8007808A7042908F8007808C7
:102DF000A604A70EF030A705A60E0F30A6052608DC
:102E0000F8007808A704270808002000A100A20104
:102E1000A3012308803AF60080307602031D122FAA
:102E20007508220203180800200022082107F60076
:102E300076088600870101089F3146279731F70001
:102E400077082000A0002008F60022082107F700DC
:102E5000770886008701760881000130A2070030DC
:102E6000A33D092F8B1323008E110E1321008E1505
:102E70000E173200151124009C171C133C008F0103
:102E80001B303D00A60016303C009E001A303D006D
:102E9000A30013303C009D00283024009D00FE302C
:102EA0009A009E019F0120009211210092150B179C
:102EB0008B1708002000AC00013097317D27973137
:102EC00020002A08AB002B08A4002C089631D72636
:102ED00097312000AD01A40100309631D7269731FB
:102EE00001302000AB002B08AD070B302D02031C76
:102EF0006B2F023097317D270800F4008B2F2200C2
:102F00000E108E14080022000E148E1008002200ED
:102F10000E148E1408007408F200F3017308003ACE
:102F20000319932F9E2F7208003A03197F2F013A3D
:102F30000319832F033A0319872F9E2F0800F601E8
:102F4000F7010830890BA22F21009D149D18A62F90
:102F50001C08F400F5017408F6047508F70408303D
:102F6000F635F70D890BB02F1B08F400F501740836
:102F7000F6047508F7047708F3007608F2000800F5
:102F80002000A700973132279731A3302000A300FB
:102F90002308F400FA30A4002408F5002708A5004F
:102FA0002508F6002208A6002608F700A230963170
:102FB00007269731F201F20A01309431B524080056
:102FC000033028009E0487309E05FF309D002100BD
:102FD0000D13921328001E15403086002330870001
:102FE00001080319FC2F403022008D008D012000C4
:102FF000921FF72F9213EC2F28001E110800FF3F9D
:103DC000FF3FFF3FFF3FFF3F553031009600AA30D5
:103DD0009600951408002000921124001E15200062
:103DE000921DEF2E921108002000921124001E1443
:103DF0002000921DF82E921108006400800101310C
:103E00000130FE020030FF3B7F087E0403190034BE
:103E1000FE2EF3007308F2007208F400F40CF401B3
:103E2000F40CF40DF401F40D74080800740C310066
:103E3000031C1513031815177208910073089200DC
:103E4000151615159E31E4260800403086002330F3
:103E500087000108031908009731E02740308600E9
:103E60002330870081010800F3007308F200720814
:103E7000F4000130F2007208F4070310F40C740827
:103E80000D3CF2007208F40074080800F3002400EE
:103E9000951373089100951B472F2000911D4D2FFE
:103EA00024001108F2007208F40020009111740837
:103EB0000800003097317D279F312000A401A40A1B
:103EC0003008A6002F08A5000030963142269F3109
:103ED000023097317D270800F3009E31F4269F3190
:103EE0007308240099002000921D732F921172080C
:103EF000240099002000921D7A2F92110800F500ED
:103F0000750895318825320011132200971717087C
:103F1000FC390138970021009E1770309E041E1155
:103F200003309E041D1408004330860023308700B0
:103F3000011C080024009D124430860023308700B5
:103F4000010896317826FE30F50043308600233094
:103F500087007508810508002000B1003108AF0016
:103F6000B0012F08B2003008B3000830B235B30DED
:103F7000890BB62FA401A40A3308A6003208A500B5
:103F80000A309631422608002000B100B201B30188
:103F90003108AF00B0012F08B2043008B30400307C
:103FA00097317D279F312000A401A40A3308A60081
:103FB0003208A5000830963142269F3102309731F1
:103FC0007D2708000030F2008030F300F401F40A8D
:103FD0009F3116279F31D030F500CA30890BEE2F64
:103FE000F50BEE2F31001515151395129101803048
:103FF0009200930194019E31E426310015110800CE
:00000001FF
