:020000040000FA
:1020000090315928FF3FFF3F7E1490312000921DF0
:10201000572824001C1D2B2820004903031D1A28C3
:1020200024009C1E1A28453086002330870019089A
:1020300081004F287A08F03E860087012230873DD4
:102040000108240099000130F0007008FA071D16FD
:102050002000C9014F289C1E47287B0803193628F9
:102060001908F0007008FA00FB014F287A08F03ECA
:10207000F000F1012230F13D700886007108870000
:10208000190881000130F0007008FA074F2819087C
:10209000F0007008FA00FB01FB0A1E181D16200054
:1020A000921124001C1E57282000C901C90A7E1065
:1020B000090090315B289731FF279031C900F0303B
:1020C0008400223085000030FE000130FF009E3188
:1020D000EB26FA01FB01C301C401C501C601C7011A
:1020E000C8017E1020009231592AF030860022303B
:1020F00087005831010807392000B5003508BD00B8
:102100003D080319DB28BD1C93280030943162245C
:102110009031FD302000B500F0308600223087007D
:102120005831350881053D1CCC28F030860022301E
:10213000870058310108F839B5003508BA00031096
:10214000BA0C0310BA0C0310BA0C3A08B5003508E3
:10215000B7000130B702013097318F27903120004E
:102160003708F03E860087012230873D0108B50020
:102170003508AA003A089531592590310230973137
:102180008F279031FE302000B500F03086002230DD
:1021900087005831350881053D1DDB289331FD232B
:1021A0009031FB302000B500F030860022308700EF
:1021B000583135088105103086002330870001082A
:1021C00003190800E830B5003508AA000D30973132
:1021D0006C2790311030860023308700011C2A299B
:1021E0002000B801B90111308600233087000108B2
:1021F000B500B6013508B8043608B9040830B8355A
:10220000B90D890BFF2812308600233087000108A2
:10221000B500B6013508B8043608B9040030973166
:102220008F2790312000A401A40A3908A60038089D
:10223000A5000030963154269031023097318F2717
:102240009031FE302000B50010308600233087002A
:10225000350881051030860023308700811C6029F5
:10226000003097318F2790312000A4010030A50065
:10227000A600003096315426903120002508BC007D
:102280002408BB00023097318F279031123086002E
:102290002330870020003B0881000830BC36BB0C8F
:1022A000890B4E2911308600233087003B088100BE
:1022B000FD30B500103086002330870035088105D9
:1022C000013097318F2790312000AA01AB01AB0A72
:1022D00000309631BA269031023097318F270800AE
:1022E00030308600233087000103031DC1293030C0
:1022F00086002330870081018B1320009211323039
:102300008600003087000630AB0000301E00AB0BAB
:1023100086290630AB002B08B8000630AB002B082E
:10232000A20032309731D22791312000B90138080C
:1023300039020318B9293908323E8600870101089D
:10234000AB003908AC00AD013130AE002330AF0036
:102350002C082E07B0002D082F3DB1003008860054
:10236000310887002B0881000130AB002B08B9072A
:1023700097294430860023308700010896318A2649
:10238000913142308600233087000108031D1F2A47
:102390003C2A22000C0C2000AB002B0C0139AB00B6
:1023A0000130AB06AB0DAB0D22000C0820002B0654
:1023B000FB391B2A22000C0E01392000AB00013032
:1023C000AB06AB0E22000C0820002B06EF391B2AAF
:1023D00022000C2A22000C0C2000AB002B0C01392F
:1023E000AB000130AB06AB0DAB0D22000C0820009A
:1023F0002B06FB392B0622008C000C0E0139200025
:10240000AB000130AB06AB0E22000C0820002B06FF
:10241000EF392B0622008C000C0E2000AB002B0C99
:102420000139AB000130AB06AB0EAB0D22000C083E
:1024300020002B06DF392B0622008C00372A423081
:1024400086002330870001082000AB00AC012C0877
:10245000003A03192C2AEA292B08013A0319C92941
:10246000033A0319DA29013A0319E829EA29423023
:102470008600233087008101AB308600233087003F
:10248000010803190800AB308600233087000230B2
:102490000106031D572A9F31C32791316830200060
:1024A000AB00E430890B522AAB0B522A000001002A
:1024B000080005302000C2000F30C100F130890B48
:1024C0005F2AC10B5F2AC20B5F2A4430860023308B
:1024D00087001E308100AB308600233087008101E9
:1024E00021000C110C128C120D1322000D130C156F
:1024F0000C168C16F20101309431C7249231013050
:1025000097318F2792312000AA01AB01AB0A00302E
:102510009631BA269231023097318F279231F201EB
:10252000F20A01309431C724923124009D124430C4
:10253000860023308700010896318A269231EF30D9
:102540008600233087000730810001309F31A527A6
:10255000923101309F318D2792310C30860023302B
:1025600087004D3081000D308600233087004430D5
:1025700081000E30860023308700413081000F300B
:10258000860023308700433081001C3086002330D2
:1025900087004F3081001D30860023308700443093
:1025A00081001E30860023308700413081001F30BB
:1025B000860023308700433081002C308600233092
:1025C0008700413081002D30860023308700443061
:1025D00081002E30860023308700433081003C305C
:1025E000860023308700553081003D30860023303F
:1025F0008700493081003E30860023308700443018
:10260000810064009031752092319F31752792319D
:102610009331942392319F31062792319131702169
:102620009231012B2000B801B901F201F20A013008
:102630009431C7249331003097318F279331013083
:102640009F31A5279331023097318F279331003086
:102650009F316027933100302000AF00B0009F31E0
:102660003A27933109302000B5001E30B400E43021
:10267000890B382BB40B382BB50B382B00000030EE
:102680002000BA000830BB003A08B8043B08B9047F
:102690003908B0003808AF009F313A279331053030
:1026A0002000B5000F30B400F130890B552BB40B6E
:1026B000552BB50B552B9731B1279331730820005B
:1026C000B7007208B600023037024D3003193602E7
:1026D00003186E2B3A08B8063B08B9060130BB3622
:1026E000BA0C890B6F2B3A083B04031D442B0030B6
:1026F00097318F27933120003908B0003808AF0098
:102700009F313A279331023097318F27933105302B
:102710002000B5000F30B400F130890B8D2BB40BC5
:102720008D2BB50B8D2B08002030860023308700C1
:1027300001080319E32B20308600233087000108AD
:1027400002392000BC003C08BE000310BE0C3E084D
:102750009F316027933109302000BD001E30BC003E
:10276000E430890BB12BBC0BB12BBD0BB12B00009E
:102770009731B127933173082000C0007208BF0061
:1027800029302000BD009630BC007F30890BC62B5D
:10279000BC0BC62BBD0BC62B223086002330870016
:1027A00020003F0881004008BC0021308600233013
:1027B00087003C088100FE30BC00203086002330BA
:1027C00087003C08810541308600233087000108DE
:1027D0000319080041308600233087000103031DE0
:1027E000080093311223FE302000BC0041308600E7
:1027F000233087003C0881050800013097318F277E
:1028000093312000AD01A40105309631E9269331C2
:1028100001302000AA002A08AD070C302D02031C4D
:10282000032C023097318F279331013097318F2756
:1028300093312000AD01A40102309631E926933195
:102840002000AA002330AC002D08073CAB00031C7D
:10285000AC032B0886002C0887002A088100023070
:10286000AA002A08AD0717302D02031C1B2C0230CA
:1028700097318F279331013097318F279331200083
:10288000AD01AD0AA40100309631E9269331200054
:10289000AA002330AC002D08073CAB00031CAC039E
:1028A0002B0886002C0887002A0881000230AA0025
:1028B0002A08AD0718302D02031C422C0230973134
:1028C0008F2708002000B300013097318F27943103
:1028D0002000B4013408AA00AB013308AC00AD01FC
:1028E0000730AE002330AF002C082E07B0002D08B3
:1028F0002F3DB1002A08300286002B08313B8700AB
:102900000108B2003208A40004309631E92694315F
:1029100002302000AA002A08B40717303402031C32
:102920006A2C023097318F279431013097318F27ED
:1029300094312000B401B40A3408AA00AB01330872
:10294000AC00AD010730AE002330AF002C082E07DD
:10295000B0002D082F3DB1002A08300286002B0858
:10296000313B87000108B2003208A40001309631E3
:10297000E926943102302000AA002A08B407183052
:102980003402031C9C2C023097318F270800F5007D
:102990008B1323000E08C8398E0022000E08E3397D
:1029A0008E0021000E1622000E148E140E08CB3954
:1029B0008E0021000E08D8398E00320095103C00A0
:1029C0008F011430A10019303D00A5001830A2007D
:1029D00001303C008F007208031DF02C8030F12C78
:1029E000C03024009400FD2C2330FB2C2130FB2C24
:1029F0002230FB2C20309500132D7508F300F401D4
:102A00007408003A0319052DFA2C7308003A0319CB
:102A1000F42C013A0319FA2C033A0319F62C013A63
:102A20000319F82CFA2C8B170800F700750886009C
:102A300087018101750A8600870181017508023EC0
:102A40008600870181017708F600750886008701F6
:102A5000760881047508860087010310810D031034
:102A6000810D7208031D3B2D0330F60075088600AA
:102A70008701760881047508860087010310810D9F
:102A80007408F9007308F8007808F6007508023E2B
:102A900086008701760881040830F936F80C890B26
:102AA0004D2D7808F600750A8600870176088104A6
:102AB00008002000AF002F089F3115279531200016
:102AC000AB002B08AC002F089731F227953120007E
:102AD000AB002B08AD002D08031D732D0430AB0097
:102AE0002B08AE00752DAE01AE0AB001B00A2C085D
:102AF00030020318862DA40100309631E926953165
:102B000001302000AB002B08B007772D2A08AB005E
:102B10002B08A4002E089631E926953101302000BB
:102B2000AB002B08B0070D30300203180800A401D9
:102B300000308B2DF400C32D21008E1723008E173B
:102B400021001D0803395C389D00080021008D1705
:102B500023008D1721001D0803393C389D00080013
:102B600022001716971621001D080339F4389D001E
:102B7000080021008C1623008C1621001D08033943
:102B800014389D0008007408F200F3017308003A3D
:102B90000319CB2DD92D7208003A03199C2D013A47
:102BA0000319A62D033A0319B02D013A0319B92DC3
:102BB000D92D0800F5007308860087018101730A8A
:102BC0008600870181017508F4007308860087017B
:102BD00074088104730886008701810EF030810536
:102BE0007208F400730A8600870174088104730A6E
:102BF00086008701810E0F308105730A86008701E8
:102C00000108F40073088600870174088104730AC0
:102C10008600870181017208F400730A860087012B
:102C200074088104730A86008701810EF0308105E3
:102C300008002000A0007508F8007808F2002008BD
:102C40009F314D2796319E31E2269631740824003B
:102C500099002000921D292E9211A10177082102CE
:102C60000318512E24009E152000921D342E92111F
:102C700024001908F800200021087607F9007908D7
:102C8000860087017808810024001C109E121E1601
:102C90002000921D482E92110130F8007808A107FB
:102CA0002E2E9E31D92608002000A900AA01AB01D2
:102CB0002408A7002708F2002608F4002508F300DE
:102CC0002C30A8002808F5002908953115259631E3
:102CD00003302000A7002708F5002C309731172774
:102CE000963120002D08A700A8012708AA0428086B
:102CF000AB040830AA35AB0D890B7A2E2E08A7003D
:102D0000A8012708AA042808AB042B08A5002A0854
:102D1000A4000800F3008B1323008E110E13210072
:102D20008E150E173200151124009C131C133C0045
:102D30008F017308F2007208F4000310F40D740898
:102D400024009A001B303D00A60016303C009E0077
:102D50001A303D00A30013303C009D0036302400A3
:102D60009D009E019F0120009211210092150B17DA
:102D70008B1708002000AD00AF012D08AC002C0817
:102D8000AF040310AF0D2F140310AF0D2A08AC00D1
:102D90002C08AF040310AF0D2B08AC002C08AF04B7
:102DA0000310AF0D0310AF0D0310AF0DAE012F08D0
:102DB000AC002C08A4000D309631E9269631013084
:102DC0002000AC002C08AE070C302E0203180800BF
:102DD000D72E2000A500A801A901A701A60124085B
:102DE000F8007808F2002830F9007908F300250887
:102DF0009531DA2596310230F8007808F500283050
:102E00009731172720002808F8007808A704290818
:102E1000F8007808A604A70EF030A705A60E0F301C
:102E2000A6052608F8007808A7042708080020004F
:102E3000A100A201A3012308803AF60080307602A7
:102E4000031D242F75082202031808002000220801
:102E50002107F60076088600870101089F312727A1
:102E60009731F70077082000A0002008F60022081C
:102E70002107F70077088600870176088100013076
:102E8000A2070030A33D1B2F8B1323008E110E13BE
:102E900021008E150E173200151124009C171C13EB
:102EA0003C008F011B303D00A60016303C009E0008
:102EB0001A303D00A30013303C009D002830240050
:102EC0009D00FE309A009E019F012000921121007A
:102ED00092150B178B1708002000AC0001309731BA
:102EE0008F27973120002A08AB002B08A4002C085C
:102EF0009631E92697312000AD01A40100309631CA
:102F0000E926973101302000AB002B08AD070B30CC
:102F10002D02031C7D2F023097318F270800F4000B
:102F20009D2F22000E108E14080022000E148E1009
:102F3000080022000E148E1408007408F200F30139
:102F40007308003A0319A52FB02F7208003A03192D
:102F5000912F013A0319952F033A0319992FB02F96
:102F60000800F601F7010830890BB42F21009D14E9
:102F70009D18B82F1C08F400F5017408F6047508B4
:102F8000F7040830F635F70D890BC22F1B08F40043
:102F9000F5017408F6047508F7047708F30076085D
:102FA000F20008002000A700973144279731A33092
:102FB0002000A3002308F400FA30A4002408F50040
:102FC0002708A5002508F6002208A6002608F70015
:102FD000A230963119269731F201F20A013094316C
:102FE000C7240800F3007308F2007208F400F40C20
:102FF000F401F40CF40DF401F40D7408080001342C
:103DA000FF3FFF3F553031009600AA309600951432
:103DB00008002000921124001E152000921DDD2E07
:103DC000921108002000921124001E142000921D60
:103DD000E62E921108006400800101310130FE02DC
:103DE0000030FF3B7F087E0403190034EC2E740C76
:103DF0003100031C1513031815177208910073087E
:103E00009200151615159E31D22608004030860006
:103E1000233087000108031908009F31E127403053
:103E200086002330870081010800F3007308F20048
:103E30007208F4000130F2007208F4070310F40C69
:103E400074080D3CF2007208F40074080800F300D6
:103E50002400951373089100951B282F2000911DB5
:103E60002E2F24001108F2007208F4002000911196
:103E700074080800003097318F279F312000A4017B
:103E8000A40A3008A6002F08A50000309631542659
:103E90009F31023097318F270800F3009E31E226D0
:103EA0009F317308240099002000921D542F921115
:103EB0007208240099002000921D5B2F92110800C7
:103EC000F500750895319A253200111322009717D5
:103ED0001708FC390138970021009E1770309E04A6
:103EE0001E1103309E041D14080043308600233049
:103EF0008700011C080024009D12443086002330F6
:103F00008700010896318A26FE30F500433086008E
:103F1000233087007508810508002000B1003108B2
:103F2000AF00B0012F08B2003008B3000830B2353E
:103F3000B30D890B972FA401A40A3308A6003208F9
:103F4000A5000A309631542608002000B100B201C5
:103F5000B3013108AF00B0012F08B2043008B30438
:103F6000003097318F279F312000A401A40A330825
:103F7000A6003208A5000830963154269F31023041
:103F800097318F2708000030F2008030F300F401F1
:103F9000F40A9E31F7269F31D030F500CA30890BE4
:103FA000CF2FF50BCF2F3100151515139512910159
:103FB00080309200930194019E31D2263100151178
:103FC0000800033028009E0487309E05FF309D00C6
:103FD00021000D13921328001E1540308600233057
:103FE000870001080319FD2F403022008D008D014C
:103FF0002000921FF82F9213ED2F28001E110800A9
:00000001FF
