:020000040000FA
:1006000083314A2BFF3FFF3F7E1483312000921D30
:10061000482B24001C1D222B9C1E152B45308600C8
:100620002330870019088100462B7A08F03E8600A7
:1006300087012230873D010899000130F0007008E1
:10064000FA07452B9C1E3E2B7B0803192D2B1908FE
:10065000F0007008FA00FB01462B7A08F03EF0002B
:10066000F1012230F13D70088600710887001908F9
:1006700081000130F0007008FA07462B1908F000DD
:100680007008FA00FB01FB0A1E181D1620009211CB
:100690007E10090083314C2BF0308400223085001D
:1006A0000030FE000130FF008C311224FA01FB0102
:1006B0002000CA01CB01CC01CD01CE01CF017E10BB
:1006C000200084315E2CF0308600223087005831C3
:1006D000010807392000B5003508BD003D080319A1
:1006E000C92BBD1C812B0030873152278331FD304F
:1006F0002000B500F03086002230870058313508E0
:1007000081053D1CBA2BF03086002230870058311D
:100710000108F839B5003508BA000310BA0C031007
:10072000BA0C0310BA0C3A08B5003508B70001300E
:10073000B70201308D315F25833120003708F03E4C
:10074000860087012230873D0108B5003508AA00E0
:100750003A088F317127833102308D315F25833123
:10076000FE302000B500F03086002230870058317E
:10077000350881053D1DC92B8631ED268331FB30BF
:100780002000B500F030860022308700583135084F
:100790008105103086002330870001080319080006
:1007A000E830B5003508AA000D308D31A42583311D
:1007B0001030860023308700011C182C2000B8015F
:1007C000B90111308600233087000108B500B60159
:1007D0003508B8043608B9040830B835B90D890BA6
:1007E000ED2B12308600233087000108B500B601DA
:1007F0003508B8043608B90400308D315F258331DF
:100800002000A401A40A3908A6003808A500003079
:100810008E318126833102308D315F258331FE3068
:100820002000B50010308600233087003508810590
:100830001030860023308700811C4E2C00308D3113
:100840005F2583312000A4010030A500A600003000
:100850008E318126833120002508BC002408BB008E
:1008600002308D315F2583311230860023308700BE
:1008700020003B0881000830BC36BB0C890B3C2CA7
:1008800011308600233087003B088100FD30B50021
:1008900010308600233087003508810501308D3106
:1008A0005F2583312000AA01AB01AB0A00308E31F5
:1008B0002226833102308D315F250800053020006B
:1008C000C4000F30C300F130890B642CC30B642CBF
:1008D000C40B642C44308600233087003E308100F6
:1008E000AB30860023308700810121000C110C12EF
:1008F0008C120D1322000D13F20101308F31B2273B
:10090000843101308D315F2584312000AA01AB0193
:10091000AB0A00308E312226843102308D315F25C2
:100920008431F201F20A01308F31B22784318531EE
:10093000FD258431443086002330870001088E3144
:1009400051268431EF308600233087000530810046
:1009500001308C31E124843101308C31AC2484317C
:100960000C308600233087004D3081000D3086002A
:1009700023308700443081000E308600233087000A
:10098000413081000F3086002330870043308100E2
:100990001C308600233087004F3081001D308600D8
:1009A00023308700443081001E30860023308700CA
:1009B000413081001F3086002330870043308100A2
:1009C0002C30860023308700413081002D30860096
:1009D00023308700443081002E308600233087008A
:1009E000433081003C308600233087005530810041
:1009F0003D30860023308700493081003E3086003C
:100A000023308700443081002000C90110304902A2
:100A10000318242D4908C3000330C335FF3E031DCE
:100A20000D2D4335C4004908F03EC500C6012230F3
:100A3000C63D45088600460887004408810001300D
:100A4000C3004308C907062D0830860023308700FD
:100A5000023081008331632384318C31C42484319A
:100A60008631842684318C312B24843185313A259A
:100A700084312A2D30308600233087000103031D86
:100A80008C2D8B13200092113230860000308700AD
:100A90000630AB0000301E00AB0B4B2D0630AB0018
:100AA0002B08B8000630AB002B08A20032308D3185
:100AB0001E2585312000B9013808390203187E2D22
:100AC0003908323E860087010108AB003908AC00C6
:100AD000AD013130AE002330AF002C082E07B0003E
:100AE0002D082F3DB10030088600310887002B0803
:100AF00081000130AB002B08B9075C2D1230860055
:100B000023308700810143308600233087000108AD
:100B10008E31512685318B17423086002330870075
:100B20000103031DCC2D22000C0C2000AB002B0C6C
:100B30000139AB000130AB06AB0DAB0D22000C0848
:100B400020002B06FB392B0622008C000C0E0139ED
:100B50002000AB000130AB06AB0E22000C082000D9
:100B60002B06EF392B0622008C000C0E2000AB0068
:100B70002B0C0139AB000130AB06AB0EAB0D2200E4
:100B80000C0820002B06DF392B0622008C00423097
:100B90008600233087008101AC3086002330870037
:100BA000010803190800F030860022308700413127
:100BB00001080319F72DE030F2001F30F3008C31EB
:100BC0000724853105302000AC000F30AB00F13038
:100BD000890BE82DAB0BE82DAC0BE82DFF30F200B4
:100BE0001F30F300F401F5018C3197248531A030DA
:100BF0000032890BF82D010008002000BA01BB016A
:100C0000F201F20A01308F31B227853100308D3187
:100C10005F25853101308C31E124853102308D3101
:100C20005F25853100308C318224853100302000F1
:100C3000AF00B0008C315C24853109302000B70052
:100C40001E30B600E430890B232EB60B232EB70BD3
:100C5000232E000000302000BC000830BD003C08FE
:100C6000BA043D08BB043B08B0003A08AF008C3121
:100C70005C24853105302000B7000F30B600F1301C
:100C8000890B402EB60B402EB70B402E8D313E25E2
:100C9000853173082000B9007208B80002303902AB
:100CA0004D30031938020318592E3C08BA063D0886
:100CB000BB060130BD36BC0C890B5A2E3C083D04E6
:100CC000031D2F2E00308D315F25853120003B081C
:100CD000B0003A08AF008C315C24853102308D3190
:100CE0005F25853105302000B7000F30B600F130A8
:100CF000890B782EB60B782EB70B782E20003B0888
:100D0000B5003A08B4000800203086002330870080
:100D100001080319D32E20308600233087000108F4
:100D200002392000BE003E08C0000310C00C40087D
:100D30008C318224863109302000BF001E30BE0075
:100D4000E430890BA12EBE0BA12EBF0BA12E0000FB
:100D50008D313E25863173082000C2007208C10023
:100D600029302000BF009630BE007F30890BB62EA0
:100D7000BE0BB62EBF0BB62E223086002330870066
:100D80002000410881004208BE0021308600233047
:100D900087003E088100FE30BE00203086002330F0
:100DA00087003E0881054130860023308700010816
:100DB0000319080041308600233087000103031D1A
:100DC00008008531FD25FE302000BE004130860040
:100DD000233087003E088105080001308D315F25F2
:100DE00086312000AD01A40105308D31F425863116
:100DF00001302000AA002A08AD070C302D02031C88
:100E0000F32E02308D315F25863101308D315F2523
:100E100086312000AD01A40102308D31F4258631E8
:100E20002000AA002330AC002D08073CAB00031CB7
:100E3000AC032B0886002C0887002A0881000230AA
:100E4000AA002A08AD0717302D02031C0B2F023011
:100E50008D315F25863101308D315F25863120004F
:100E6000AD01AD0AA40100308D31F425863120009A
:100E7000AA002330AC002D08073CAB00031CAC03D8
:100E80002B0886002C0887002A0881000230AA005F
:100E90002A08AD0718302D02031C322F02308D3185
:100EA0005F2508002000B30001308D315F258731B8
:100EB0002000B4013408AA00AB013308AC00AD0136
:100EC0000730AE002330AF002C082E07B0002D08ED
:100ED0002F3DB1002A08300286002B08313B8700E5
:100EE0000108B2003208A40004308D31F4258731A6
:100EF00002302000AA002A08B40717303402031C6D
:100F00005A2F02308D315F25873101308D315F25B9
:100F100087312000B401B40A3408AA00AB013308B9
:100F2000AC00AD010730AE002330AF002C082E0717
:100F3000B0002D082F3DB1002A08300286002B0892
:100F4000313B87000108B2003208A40001308D3126
:100F5000F425873102302000AA002A08B40718308F
:100F60003402031C8C2F02308D315F250800F700FE
:100F70007508860087018101750A86008701810155
:100F80007508023E8600870181017708F600750822
:100F900086008701760881047508860087010310A2
:100FA000810D0310810D7208031DDD2F0330F60043
:100FB0007508860087017608810475088600870118
:100FC0000310810D7408F9007308F8007808F60022
:100FD0007508023E86008701760881040830F936DC
:100FE000F80C890BEF2F7808F600750A8600870148
:100FF000760881040800FF3FFF3FFF3FFF3FFF3FB0
:1017D000FF3FFF3FFF3FFF3F2000921124001E15F7
:1017E0002000921DF02B921108002000921124007D
:1017F0001E142000921DF92B921108008B135530F6
:1018000031009600AA30960095148B17080031001D
:1018100015137208910073089200151615158B3177
:10182000FE2308006400800101310130FE02003017
:10183000FF3B7F087E0403190034132CF300730868
:10184000F2007208F400F40CF401F40CF40DF4014D
:10185000F40D74080800403086002330870001082A
:10186000031908008C31FF244030860023308700A4
:1018700081010800F3007308240091002000911DED
:101880003E2C24001108F2007208F400200091118F
:1018900074080800F3007308F2007208F4000130C5
:1018A000F2007208F4070310F40C74080D3CF20007
:1018B0007208F4007408080000308D315F258C3107
:1018C0002000A401A40A3008A6002F08A5000030BB
:1018D0008E3181268C3102308D315F250800F30076
:1018E0008B31F5238C317308240099002000921D60
:1018F000762C92117208240099002000921D7D2CF4
:1019000092110800F50075088F313127320011134C
:10191000220097171708FC390138970021009E17FD
:1019200070309E041E1103309E041D140800310007
:10193000151515137308F7007208F6007608910064
:1019400077089200951275089400740893008B3103
:10195000FE233100151108002000B1003108AF004E
:10196000B0012F08B2003008B3000830B235B30D13
:10197000890BB62CA401A40A3308A6003208A500DE
:101980000A308E31812608004330860023308700DC
:10199000011C08008B13200092118D3181258C31A0
:1019A000443086002330870001088E315126FE30F6
:1019B000F5004330860023308700750881058B17BA
:1019C00008002000B100B201B3013108AF00B0013E
:1019D0002F08B2043008B30400308D315F258C31FC
:1019E0002000A401A40A3308A6003208A50008308C
:1019F0008E3181268C3102308D315F250800033015
:101A000028009E0487309E05FF309D0021000D13A5
:101A1000921328001E1540308600233087000108ED
:101A200003191B2D403022008D008D012000921FD4
:101A3000162D92130B2D28001E1108002000A70060
:101A40008D3181258D31A3302000A3002308F400BF
:101A5000FA30A4002408F5002708A5002508F600A0
:101A60002208A6002608F700A2308E31B7268D3155
:101A7000F201F20A01308F31B2270800F601F701B6
:101A80000830890B412D21009D149D18452D1C08FF
:101A9000F400F5017408F6047508F7040830F6350B
:101AA000F70D890B4F2D1B08F400F5017408F6049F
:101AB0007508F7047708F3007608F2000800F400D0
:101AC0006D2D22000E108E14080022000E148E10B0
:101AD000080022000E148E1408007408F200F301AE
:101AE0007308003A0319752D802D7208003A031906
:101AF000612D013A0319652D033A0319692D802DD3
:101B000008002100921523008E110E1321008E155E
:101B10000E173200151124009C171C133C008F0176
:101B20001B303D00A60016303C009E001A303D00E0
:101B3000A30013303C009D00283024009D00FE309F
:101B40009A009E019F0108002000AC0001308D31F9
:101B50005F258D3120002A08AB002B08A4002C083B
:101B60008D31F4258D312000AD01A40100308D317F
:101B7000F4258D3101302000AB002B08AD070B3070
:101B80002D02031CB52D02308D315F250800200089
:101B9000A100A201A3012308803AF600803076025A
:101BA000031DD42D75082202031808002000220806
:101BB0002107F60076088600870101088C313A2457
:101BC0008D31F70077082000A0002008F6002208D9
:101BD0002107F70077088600870176088100013029
:101BE000A2070030A33DCB2D2000A500A801A9012C
:101BF000A701A6012408F8007808F2002830F900AF
:101C00007908F30025088E31F2268D310230F80074
:101C10007808F50028308D31C72520002808F80005
:101C20007808A7042908F8007808A604A70EF03061
:101C3000A705A60E0F30A6052608F8007808A70409
:101C4000270808002000AD00AF012D08AC002C08CB
:101C5000AF040310AF0D2F140310AF0D2A08AC0012
:101C60002C08AF040310AF0D2B08AC002C08AF04F8
:101C70000310AF0D0310AF0D0310AF0DAE012F0811
:101C8000AC002C08A4000D308D31F4258E310130CC
:101C90002000AC002C08AE070C302E020318080000
:101CA0003F2EF3008B130B132100921523008E118E
:101CB0000E1321008E150E173200151124009C13EF
:101CC0001C133C008F017308F2007208F40003102B
:101CD000F40D740824009A001B303D00A600163055
:101CE0003C009E001A303D00A30013303C009D00D4
:101CF000263024009D009E01200092110B178B17A7
:101D000008002000A900AA01AB012408A7002708A9
:101D1000F2002608F4002508F3002C30A80028085B
:101D2000F50029088731B7278E3103302000A7003E
:101D30002708F5002C308D31C7258E3120002D0865
:101D4000A700A8012708AA042808AB040830AA3570
:101D5000AB0D890BA72E2E08A700A8012708AA04FF
:101D60002808AB042B08A5002A08A40008002000BE
:101D7000A0007508F8007808F20020088C316F2464
:101D80008E318B31F5238E317408240099002000A8
:101D9000921DC72E9211A101770821020318EF2E80
:101DA00024009E152000921DD22E921124001908A5
:101DB000F800200021087607F900790886008701DD
:101DC0007808810024001C109E121E162000921D0F
:101DD000E62E92110130F8007808A107CC2E8B3145
:101DE000EC230800F5007308860087018101730A5F
:101DF0008600870181017508F40073088600870159
:101E000074088104730886008701810EF030810513
:101E10007208F400730A8600870174088104730A4B
:101E200086008701810E0F308105730A86008701C5
:101E30000108F40073088600870174088104730A9E
:101E40008600870181017208F400730A8600870109
:101E500074088104730A86008701810EF0308105C1
:101E60000800F4005A2F21008E1723008E1721003E
:101E70001D0803395C389D00080021008D172300E0
:101E80008D1721001D0803393C389D0008002200F1
:101E90001716971621001D080339F4389D00080015
:101EA00021008C1623008C1621001D0803391438DC
:101EB0009D0008007408F200F3017308003A03194A
:101EC000622F702F7208003A0319332F013A031959
:101ED0003D2F033A0319472F013A0319502F702F52
:101EE00008002000AF002F088C314A248F312000D9
:101EF000AB002B08AC002F088C311E248F31200042
:101F0000AB002B08AD002D08031D8B2F0430AB0058
:101F10002B08AE008D2FAE01AE0AB001B00A2C081E
:101F2000300203189E2FA40100308D31F4258F312B
:101F300001302000AB002B08B0078F2F2A08AB0020
:101F40002B08A4002E088D31F4258F31013020009C
:101F5000AB002B08B0070D30300203180800A401B5
:101F60000030A32FF5008B1323000E08C8398E0014
:101F700022000E08E3398E0021000E1622000E14F6
:101F80008E140E08CB398E0021000E08D8398E0031
:101F9000320095103C008F011430A10019303D0033
:101FA000A5001830A20001303C008F007208031D0C
:101FB000DB2F8030DC2FC03024009400E82F23304A
:101FC000E62F2130E62F2230E62F20309500FE2F1D
:101FD0007508F300F4017408003A0319F02FE52F97
:101FE0007308003A0319DF2F013A0319E52F033A6A
:101FF0000319E12F013A0319E32FE52F8B1708008E
:00000001FF
