:020000040000FA
:1020000090313628FF3FFF3F7E1490312000111C95
:102010000A280B283428111022000C0CF000700C38
:102020000139F0000130F006F00DF00D0C087006DB
:10203000FB3970068C000C0E0139F0000130F006FF
:10204000F00E0C087006EF3970068C000C0EF000D4
:10205000700C0139F0000130F006F00EF00D0C08A4
:102060007006DF3970068C007E1009009031382828
:102070007E10200090313C2821000C110C128C1293
:1020800022000C110C128C122000111032001D16AF
:10209000210011140B178B17C13020009B004F2813
:1020A00090313628FF3FFF3FFF3FFF3FFF3FFF3F9D
:00000001FF
