:020000040000FA
:1020000090314A28FF3FFF3F7E1490312000921DFF
:10201000482824001C1D22289C1E152845308600B7
:10202000233087001908810046287A08F03E860090
:1020300087012230873D010899000130F0007008C7
:10204000FA0745289C1E3E287B0803192D281908ED
:10205000F0007008FA00FB0146287A08F03EF00014
:10206000F1012230F13D70088600710887001908DF
:1020700081000130F0007008FA0746281908F000C6
:102080007008FA00FB01FB0A1E181D1620009211B1
:102090007E10090090314C28F030840022308500F9
:1020A0000030FE000130FF009E31F826FA01FB01EE
:1020B0002000C301C401C501C601C701C8017E10CB
:1020C00020009231472AF0308600223087005831B4
:1020D000010807392000B5003508BD003D08031987
:1020E000C928BD1C8128003094314B249031FD302B
:1020F0002000B500F03086002230870058313508C6
:1021000081053D1CBA28F030860022308700583106
:102110000108F839B5003508BA000310BA0C0310ED
:10212000BA0C0310BA0C3A08B5003508B7000130F4
:10213000B702013097317827903120003708F03E00
:10214000860087012230873D0108B5003508AA00C6
:102150003A089531422590310230973178279031F5
:10216000FE302000B500F030860022308700583164
:10217000350881053D1DC9289331E6239031FB3098
:102180002000B500F0308600223087005831350835
:1021900081051030860023308700010803190800EC
:1021A000E830B5003508AA000D3097315527903139
:1021B0001030860023308700011C18292000B80148
:1021C000B90111308600233087000108B500B6013F
:1021D0003508B8043608B9040830B835B90D890B8C
:1021E000ED2812308600233087000108B500B601C3
:1021F0003508B8043608B904003097317827903193
:102200002000A401A40A3908A6003808A50000305F
:1022100096313D2690310230973178279031FE304B
:102220002000B50010308600233087003508810576
:102230001030860023308700811C4E2900309731F2
:10224000782790312000A4010030A500A6000030BE
:1022500096313D26903120002508BC002408BB00A3
:102260000230973178279031123086002330870072
:1022700020003B0881000830BC36BB0C890B3C2990
:1022800011308600233087003B088100FD30B50007
:1022900010308600233087003508810501309731E2
:1022A000782790312000AA01AB01AB0A00309631AB
:1022B000A32690310230973178270800303086000D
:1022C000233087000103031DAF29303086002330FF
:1022D000870081018B13200092113230860000307C
:1022E00087000630AB0000301E00AB0B74290630AF
:1022F000AB002B08B8000630AB002B08A200323030
:102300009731BB2791312000B901380839020318F1
:10231000A7293908323E860087010108AB00390839
:10232000AC00AD013130AE002330AF002C082E07D9
:10233000B0002D082F3DB10030088600310887001D
:102340002B0881000130AB002B08B90785294430E8
:102350008600233087000108963173269131423080
:102360008600233087000108031D0D2A2A2A220037
:102370000C0C2000AB002B0C0139AB000130AB067C
:10238000AB0DAB0D22000C0820002B06FB39092AEF
:1023900022000C0E01392000AB000130AB06AB0E61
:1023A00022000C0820002B06EF39092A2200FA2906
:1023B00022000C0C2000AB002B0C0139AB000130CB
:1023C000AB06AB0DAB0D22000C0820002B06FB3931
:1023D0002B0622008C000C0E01392000AB000130CE
:1023E000AB06AB0E22000C0820002B06EF392B06A3
:1023F00022008C000C0E2000AB002B0C0139AB002E
:102400000130AB06AB0EAB0D22000C0820002B06F2
:10241000DF392B0622008C00252A4230860023302B
:10242000870001082000AB00AC012C08003A03191A
:102430001A2AD8292B08013A0319B729033A031994
:10244000C829013A0319D629D829423086002330F9
:1024500087008101AB308600233087000108031913
:102460000800AB3086002330870002300106031DD0
:10247000452A9F31E227913168302000AB00E430DB
:10248000890B402AAB0B402A0000010008000530F0
:102490002000C2000F30C100F130890B4D2AC10B62
:1024A0004D2AC20B4D2A44308600233087001E304F
:1024B0008100AB30860023308700810121000C11A0
:1024C0000C128C120D1322000D130C150C168C1609
:1024D000F20101309431B0249231013097317827E4
:1024E00092312000AA01AB01AB0A00309631A3263D
:1024F00092310230973178279231F201F20A01309D
:102500009431B024923120009211210092150B17C2
:102510008B17EF30860023308700063081000130B2
:102520009F31C427923101309F318F2792310C3077
:102530008600233087004D3081000D308600233027
:102540008700443081000E30860023308700413000
:1025500081000F30860023308700433081001C301B
:102560008600233087004F3081001D3086002330E5
:102570008700443081001E308600233087004130C0
:1025800081001F30860023308700433081002C30CB
:10259000860023308700413081002D3086002330B3
:1025A0008700443081002E3086002330870043307E
:1025B00081003C30860023308700553081003D305B
:1025C000860023308700493081003E30860023306A
:1025D0008700443081009031632092319F31A727DA
:1025E000923193317D2392319F3120279231913165
:1025F0005E219231EB2A2000B801B901F201F20A02
:1026000001309431B02492310030973178279231E3
:1026100001309F31C42792310230973178279231AF
:1026200000309F317A27923100302000AF00B00097
:102630009F315427923109302000B5001E30B4007C
:10264000E430890B212BB40B212BB50B212B00007F
:1026500000302000BA000830BB003A08B8043B083C
:10266000B9043908B0003808AF009F3154279231BF
:1026700005302000B5000F30B400F130890B3E2B3F
:10268000B40B3E2BB50B3E2B97319A279231730832
:102690002000B7007208B600023037024D3003192F
:1026A00036020318572B3A08B8063B08B906013022
:1026B000BB36BA0C890B582B3A083B04031D2D2B53
:1026C000003097317827923120003908B00038085F
:1026D000AF009F31542792310230973178279231E1
:1026E00005302000B5000F30B400F130890B762B97
:1026F000B40B762BB50B762B0800203086002330E8
:10270000870001080319CC2B203086002330870076
:10271000010802392000BC003C08BE000310BE0CBA
:102720003E089F317A27933109302000BD001E30CA
:10273000BC00E430890B9A2BBC0B9A2BBD0B9A2B57
:10274000000097319A27933173082000C000720867
:10275000BF0029302000BD009630BC007F30890BBF
:10276000AF2BBC0BAF2BBD0BAF2B22308600233021
:10277000870020003F0881004008BC00213086000F
:10278000233087003C088100FE30BC0020308600EA
:10279000233087003C0881054130860023308700C4
:1027A0000108031908004130860023308700010327
:1027B000031D08009231FB22FE302000BC00413096
:1027C0008600233087003C088105080001309731DE
:1027D000782793312000AD01A40105309631D2262F
:1027E000933101302000AA002A08AD070C302D02D9
:1027F000031CEC2B0230973178279331013097314D
:10280000782793312000AD01A40102309631D22601
:1028100093312000AA002330AC002D08073CAB0008
:10282000031CAC032B0886002C0887002A088100B3
:102830000230AA002A08AD0717302D02031C042C11
:1028400002309731782793310130973178279331CF
:102850002000AD01AD0AA40100309631D22693319B
:102860002000AA002330AC002D08073CAB00031C5D
:10287000AC032B0886002C0887002A088100023050
:10288000AA002A08AD0718302D02031C2B2C023099
:102890009731782708002000B3000130973178275E
:1028A00094312000B4013408AA00AB013308AC0015
:1028B000AD010730AE002330AF002C082E07B0006A
:1028C0002D082F3DB1002A08300286002B08313B2D
:1028D00087000108B2003208A40004309631D226E5
:1028E000943102302000AA002A08B40717303402BD
:1028F000031C532C023097317827943101309731E3
:10290000782794312000B401B40A3408AA00AB013E
:102910003308AC00AD010730AE002330AF002C0807
:102920002E07B0002D082F3DB1002A083002860086
:102930002B08313B87000108B2003208A4000130A7
:102940009631D226943102302000AA002A08B4071A
:1029500018303402031C852C023097317827080088
:10296000F5008B1323000E08C8398E0022000E08D4
:10297000E3398E0021000E1622000E148E140E086C
:10298000CB398E0021000E08D8398E003200951008
:102990003C008F011430A10019303D00A500183013
:1029A000A20001303C008F007208031DD92C80303A
:1029B000DA2CC03024009400E62C2330E42C2130A3
:1029C000E42C2230E42C20309500FC2C7508F30018
:1029D000F4017408003A0319EE2CE32C7308003A52
:1029E0000319DD2C013A0319E32C033A0319DF2CF8
:1029F000013A0319E12CE32C8B170800F700750846
:102A0000860087018101750A8600870181017508AA
:102A1000023E8600870181017708F600750886006E
:102A20008701760881047508860087010310810DEF
:102A30000310810D7208031D242D0330F600750864
:102A400086008701760881047508860087010310D7
:102A5000810D7408F9007308F8007808F60075080D
:102A6000023E86008701760881040830F936F80CAA
:102A7000890B362D7808F600750A860087017608DE
:102A8000810408002000AF002F089F312F279531C7
:102A90002000AB002B08AC002F089F310427953194
:102AA0002000AB002B08AD002D08031D5C2D043069
:102AB000AB002B08AE005E2DAE01AE0AB001B00A2D
:102AC0002C08300203186F2DA40100309631D22655
:102AD000953101302000AB002B08B007602D2A088B
:102AE000AB002B08A4002E089631D2269531013078
:102AF0002000AB002B08B0070D303002031808008F
:102B0000A4010030742DF400AC2D21008E17230099
:102B10008E1721001D0803395C389D000800210034
:102B20008D1723008D1721001D0803393C389D00A7
:102B3000080022001716971621001D080339F438E3
:102B40009D00080021008C1623008C1621001D0812
:102B5000033914389D0008007408F200F30173086B
:102B6000003A0319B42DC22D7208003A0319852DBD
:102B7000013A03198F2D033A0319992D013A0319CC
:102B8000A22DC22D0800F50073088600870181017F
:102B9000730A8600870181017508F40073088600B6
:102BA000870174088104730886008701810EF03064
:102BB00081057208F400730A860087017408810495
:102BC000730A86008701810E0F308105730A860023
:102BD00087010108F40073088600870174088104E6
:102BE000730A8600870181017208F400730A860067
:102BF000870174088104730A86008701810EF03012
:102C0000810508002000A0007508F8007808F2008F
:102C100020089F31672796319E31EF269631740840
:102C2000240099002000921D122E9211A101770814
:102C3000210203183A2E24009E152000921D1D2EFD
:102C4000921124001908F800200021087607F900E5
:102C50007908860087017808810024001C109E12E4
:102C60001E162000921D312E92110130F8007808B6
:102C7000A107172E9E31E62608002000A900AA0110
:102C8000AB012408A7002708F2002608F400250855
:102C9000F3002C30A8002808F50029089431FE2400
:102CA000963103302000A7002708F5002C3097311B
:102CB0000027963120002D08A700A8012708AA04A4
:102CC0002808AB040830AA35AB0D890B632E2E08FB
:102CD000A700A8012708AA042808AB042B08A50010
:102CE0002A08A4000800F3008B130B1323008E1195
:102CF0000E1321008E150E173200151124009C139F
:102D00001C133C008F017308F2007208F4000310DA
:102D1000F40D740824009A001B303D00A600163004
:102D20003C009E001A303D00A30013303C009D0083
:102D3000263024009D009E01200092112100921552
:102D40000B178B1708002000AD00AF012D08AC0059
:102D50002C08AF040310AF0D2F140310AF0D2A0879
:102D6000AC002C08AF040310AF0D2B08AC002C08EE
:102D7000AF040310AF0D0310AF0D0310AF0DAE0184
:102D80002F08AC002C08A4000D309631D2269631C5
:102D900001302000AC002C08AE070C302E020318C6
:102DA0000800C02E2000A500A801A901A701A601C6
:102DB0002408F8007808F2002830F9007908F300B8
:102DC00025089531C32596310230F8007808F500C2
:102DD00028309731002720002808F8007808A70439
:102DE0002908F8007808A604A70EF030A705A60E5B
:102DF0000F30A6052608F8007808A7042708080061
:102E00002000A100A201A3012308803AF60080302F
:102E10007602031D0D2F75082202031808002000FA
:102E200022082107F60076088600870101089F31F5
:102E300041279731F70077082000A0002008F6000E
:102E400022082107F70077088600870176088100AD
:102E50000130A2070030A33D042F8B1323008E11F5
:102E60000E1321008E150E173200151124009C1729
:102E70001C133C008F011B303D00A60016303C00A7
:102E80009E001A303D00A30013303C009D00283006
:102E900024009D00FE309A009E019F0120009211A7
:102EA000210092150B178B1708002000AC00013091
:102EB00097317827973120002A08AB002B08A4000F
:102EC0002C089631D22697312000AD01A4010030A4
:102ED0009631D226973101302000AB002B08AD0788
:102EE0000B302D02031C662F023097317827080023
:102EF000F400862F22000E108E14080022000E14FB
:102F00008E10080022000E148E1408007408F200BF
:102F1000F3017308003A03198E2F992F7208003AB3
:102F200003197A2F013A03197E2F033A0319822FCE
:102F3000992F0800F601F7010830890B9D2F210019
:102F40009D149D18A12F1C08F400F5017408F604C7
:102F50007508F7040830F635F70D890BAB2F1B0801
:102F6000F400F5017408F6047508F7047708F30017
:102F70007608F20008002000A70097312D2797312E
:102F8000A3302000A3002308F400FA30A400240892
:102F9000F5002708A5002508F6002208A600260847
:102FA000F700A230963102269731F201F20A013081
:102FB0009431B0240800033028009E0487309E0519
:102FC000FF309D0021000D13921328001E15403084
:102FD00086002330870001080319F72F40302200B4
:102FE0008D008D012000921FF22F9213E72F2800F1
:102FF0001E110800FF3FFF3FFF3FFF3FFF3FFF3F26
:103DB000FF3FFF3FFF3FFF3FFF3FFF3FFF3F5530CC
:103DC00031009600AA309600951408002000921148
:103DD00024001E152000921DEA2E921108002000DA
:103DE000921124001E142000921DF32E921108003F
:103DF0006400800101310130FE020030FF3B7F088A
:103E00007E0403190034F92EF3007308F2007208DF
:103E1000F400F40CF401F40CF40DF401F40D740846
:103E20000800740C3100031C1513031815177208D1
:103E3000910073089200151615159E31DF260800B3
:103E400040308600233087000108031908009731AD
:103E5000DB27403086002330870081010800F30013
:103E60007308F2007208F4000130F2007208F407DF
:103E70000310F40C74080D3CF2007208F40074088E
:103E80000800F3002400951373089100951B422F3E
:103E90002000911D482F24001108F2007208F40040
:103EA00020009111740808000030973178279F3165
:103EB0002000A401A40A3008A6002F08A5000030A5
:103EC00096313D269F310230973178270800F30064
:103ED0009E31EF269F317308240099002000921D27
:103EE0006E2F92117208240099002000921D752FE8
:103EF00092110800F50075089531832532001113E1
:103F0000220097171708FC390138970021009E17E7
:103F100070309E041E1103309E041D140800200002
:103F2000B1003108AF00B0012F08B2003008B30073
:103F30000830B235B30D890B992FA401A40A3308B8
:103F4000A6003208A5000A3096313D26080043300D
:103F5000860023308700011C08008B13200092117B
:103F600097312D279F314430860023308700010888
:103F700096317326FE30F5004330860023308700EB
:103F8000750881058B1708002000B100B201B3014C
:103F90003108AF00B0012F08B2043008B30400307C
:103FA000973178279F312000A401A40A3308A60086
:103FB0003208A500083096313D269F3102309731F6
:103FC000782708000030F2008030F300F401F40A92
:103FD0009F3111279F31D030F500CA30890BEE2F69
:103FE000F50BEE2F31001515151395129101803048
:103FF0009200930194019E31DF26310015110800D3
:00000001FF
