:020000040000FA
:1006000083314A2BFF3FFF3F7E1483312000921D30
:10061000482B24001C1D222B9C1E152B45308600C8
:100620002330870019088100462B7A08F03E8600A7
:1006300087012230873D010899000130F0007008E1
:10064000FA07452B9C1E3E2B7B0803192D2B1908FE
:10065000F0007008FA00FB01462B7A08F03EF0002B
:10066000F1012230F13D70088600710887001908F9
:1006700081000130F0007008FA07462B1908F000DD
:100680007008FA00FB01FB0A1E181D1620009211CB
:100690007E10090083314C2BF0308400223085001D
:1006A0000030FE000130FF008731F427FA01FB0122
:1006B0002000CA01CB01CC01CD01CE01CF017E10BB
:1006C000200084315E2CF0308600223087005831C3
:1006D000010807392000B5003508BD003D080319A1
:1006E000C92BBD1C812B0030873141278331FD3060
:1006F0002000B500F03086002230870058313508E0
:1007000081053D1CBA2BF03086002230870058311D
:100710000108F839B5003508BA000310BA0C031007
:10072000BA0C0310BA0C3A08B5003508B70001300E
:10073000B70201308D316925833120003708F03E42
:10074000860087012230873D0108B5003508AA00E0
:100750003A088F317B27833102308D31692583310F
:10076000FE302000B500F03086002230870058317E
:10077000350881053D1DC92B8631DC268331FB30D0
:100780002000B500F030860022308700583135084F
:100790008105103086002330870001080319080006
:1007A000E830B5003508AA000D308D31AE25833113
:1007B0001030860023308700011C182C2000B8015F
:1007C000B90111308600233087000108B500B60159
:1007D0003508B8043608B9040830B835B90D890BA6
:1007E000ED2B12308600233087000108B500B601DA
:1007F0003508B8043608B90400308D3169258331D5
:100800002000A401A40A3908A6003808A500003079
:100810008E318B26833102308D3169258331FE3054
:100820002000B50010308600233087003508810590
:100830001030860023308700811C4E2C00308D3113
:10084000692583312000A4010030A500A6000030F6
:100850008E318B26833120002508BC002408BB0084
:1008600002308D31692583311230860023308700B4
:1008700020003B0881000830BC36BB0C890B3C2CA7
:1008800011308600233087003B088100FD30B50021
:1008900010308600233087003508810501308D3106
:1008A000692583312000AA01AB01AB0A00308E31EB
:1008B0002C26833102308D31692508000530200057
:1008C000C4000F30C300F130890B642CC30B642CBF
:1008D000C40B642C44308600233087001E30810016
:1008E000AB30860023308700810121000C110C12EF
:1008F0008C120D1322000D130C110C168C16F20124
:1009000001308731A627843101308D31692584314A
:100910002000AA01AB01AB0A00308E312C268431B5
:1009200002308D3169258431F201F20A01308731BC
:10093000A62784318531EC2584314430860023306C
:10094000870001088E315B268431EF30860023302A
:1009500087000530810001308C31EB248431013077
:100960008C319A2484310C308600233087004D303E
:1009700081000D30860023308700443081000E3026
:10098000860023308700413081000F3086002330FD
:100990008700433081001C308600233087004F30B1
:1009A00081001D30860023308700443081001E30D6
:1009B000860023308700413081001F3086002330BD
:1009C0008700433081002C3086002330870041307F
:1009D00081002D30860023308700443081002E3086
:1009E000860023308700433081003C30860023306E
:1009F0008700553081003D30860023308700493024
:100A000081003E3086002330870044308100200082
:100A1000C901103049020318272D4908C3000330CB
:100A2000C335FF3E031D102D4335C4004908F03E79
:100A3000C500C6012230C63D45088600460887002D
:100A4000440881000130C3004308C907092D08305C
:100A50008600233087000230810083316323843194
:100A60008C31CE2484318631732684318C312E240E
:100A7000843185313D2584312D2D30308600233061
:100A800087000103031D8F2D8B132000921132303C
:100A90008600003087000630AB0000301E00AB0B34
:100AA0004E2D0630AB002B08B8000630AB002B08EB
:100AB000A20032308D31282585312000B901380857
:100AC00039020318812D3908323E8600870101085A
:100AD000AB003908AC00AD013130AE002330AF00BF
:100AE0002C082E07B0002D082F3DB10030088600DD
:100AF000310887002B0881000130AB002B08B907B3
:100B00005F2D12308600233087008101433086003C
:100B10002330870001088E315B2685318B174230E8
:100B20008600233087000103031DCF2D22000C0C0B
:100B30002000AB002B0C0139AB000130AB06AB0D34
:100B4000AB0D22000C0820002B06FB392B062200DF
:100B50008C000C0E01392000AB000130AB06AB0E4F
:100B600022000C0820002B06EF392B0622008C00F7
:100B70000C0E2000AB002B0C0139AB000130AB0692
:100B8000AB0EAB0D22000C0820002B06DF392B0624
:100B900022008C0042308600233087008101AB3078
:100BA000860023308700010803190800AB30860057
:100BB0002330870002300106031DEA2D8C31B22458
:100BC000853168302000AB00E430890BE52DAB0B9C
:100BD000E52D0000010008002000BA01BB01F20170
:100BE000F20A01308731A627853100308D31692521
:100BF000853101308C31EB24853102308D3169250E
:100C0000853100308C318524853100302000AF00E3
:100C1000B0008C315F24853109302000B7001E30D0
:100C2000B600E430890B122EB60B122EB70B122E23
:100C3000000000302000BC000830BD003C08BA04B1
:100C40003D08BB043B08B0003A08AF008C315F247C
:100C5000853105302000B7000F30B600F130890B28
:100C60002F2EB60B2F2EB70B2F2E8D314825853109
:100C700073082000B9007208B800023039024D3004
:100C8000031938020318482E3C08BA063D08BB0673
:100C90000130BD36BC0C890B492E3C083D04031DB8
:100CA0001E2E00308D316925853120003B08B000B3
:100CB0003A08AF008C315F24853102308D316925CF
:100CC000853105302000B7000F30B600F130890BB8
:100CD000672EB60B672EB70B672E20003B08B500BA
:100CE0003A08B4000800203086002330870001084D
:100CF0000319C22E203086002330870001080239F4
:100D00002000BE003E08C0000310C00C40088C311B
:100D10008524863109302000BF001E30BE00E4303B
:100D2000890B902EBE0B902EBF0B902E00008D31A4
:100D30004825863173082000C2007208C10029309E
:100D40002000BF009630BE007F30890BA52EBE0B61
:100D5000A52EBF0BA52E2230860023308700200051
:100D6000410881004208BE00213086002330870000
:100D70003E088100FE30BE00203086002330870010
:100D80003E088105413086002330870001080319A1
:100D9000080041308600233087000103031D08004E
:100DA0008531EC25FE302000BE0041308600233026
:100DB00087003E088105080001308D3169258631A4
:100DC0002000AD01A40105308D31FE2586310130B2
:100DD0002000AA002A08AD070C302D02031CE22EC9
:100DE00002308D316925863101308D31692586319A
:100DF0002000AD01A40102308D31FE258631200096
:100E0000AA002330AC002D08073CAB00031CAC0348
:100E10002B0886002C0887002A0881000230AA00CF
:100E20002A08AD0717302D02031CFA2E02308D312F
:100E30006925863101308D31692586312000AD016B
:100E4000AD0AA40100308D31FE2586312000AA00B4
:100E50002330AC002D08073CAB00031CAC032B086F
:100E600086002C0887002A0881000230AA002A0880
:100E7000AD0718302D02031C212F02308D3169255A
:100E800008002000B30001308D3169258731200032
:100E9000B4013408AA00AB013308AC00AD0107303F
:100EA000AE002330AF002C082E07B0002D082F3DD8
:100EB000B1002A08300286002B08313B8700010868
:100EC000B2003208A40004308D31FE258731023093
:100ED0002000AA002A08B40717303402031C492F47
:100EE00002308D316925873101308D316925873197
:100EF0002000B401B40A3408AA00AB013308AC00E6
:100F0000AD010730AE002330AF002C082E07B00033
:100F10002D082F3DB1002A08300286002B08313BF6
:100F200087000108B2003208A40001308D31FE258F
:100F3000873102302000AA002A08B4071830340292
:100F4000031C7B2F02308D3169250800F5008B13BF
:100F500023000E08C8398E0022000E08E3398E00E7
:100F600021000E1622000E148E140E08CB398E00AE
:100F700021000E08D8398E00320095103C008F01F8
:100F80001430A10019303D00A5001830A200013036
:100F90003C008F007208031DCF2F8030D02FC0304F
:100FA00024009400DC2F2330DA2F2130DA2F223076
:100FB000DA2F20309500F22F7508F300F401740841
:100FC000003A0319E42FD92F7308003A0319D32FDD
:100FD000013A0319D92F033A0319D52F013A0319FE
:100FE000D72FD92F8B170800640080010131013001
:100FF000FE020030FF3B7F087E0403190034F52F0A
:1017F000FF3FFF3FFF3FFF3FFF3F55303100960067
:10180000AA309600951408002000921124001E159D
:101810002000921D082C9211080020009211240033
:101820001E142000921D112C921108003100151376
:101830007208910073089200151615158B31FD235F
:101840000800F3007308F2007208F400F40CF401CD
:10185000F40CF40DF401F40D740808004030860017
:10186000233087000108031908008D310925403015
:1018700086002330870081010800F30073082400EC
:1018800091002000911D412C24001108F2007208E3
:10189000F4002000911174080800F3007308F200AE
:1018A0007208F4000130F2007208F4070310F40C1F
:1018B00074080D3CF2007208F4007408080000304F
:1018C0008D3169258C312000A401A40A3008A600BE
:1018D0002F08A50000308E318B268C3102308D31DF
:1018E00069250800F3008C310D248C317308240025
:1018F00099002000921D792C921172082400990001
:101900002000921D802C92110800F50075088F317F
:101910003B2732001113220097171708FC390138B2
:10192000970021009E1770309E041E1103309E0404
:101930001D1408002000B1003108AF00B0012F08CD
:10194000B2003008B3000830B235B30D890BA42CB7
:10195000A401A40A3308A6003208A5000A308E317B
:101960008B260800E030F2001F30F3008C31162483
:101970008C31D030F400CA30890BBC2CF40BBC2C59
:101980003100151515139512BB309100920193018A
:1019900094018B31FD23310015110800433086007E
:1019A00023308700011C08008B13200092118D3119
:1019B0008B258C31443086002330870001088E311E
:1019C0005B26FE30F5004330860023308700750823
:1019D00081058B1708002000B100B201B301310866
:1019E000AF00B0012F08B2043008B30400308D31CD
:1019F00069258C312000A401A40A3308A60032080E
:101A0000A50008308E318B268C3102308D3169254E
:101A10000800033028009E0487309E05FF309D009B
:101A200021000D13921328001E154030860023302C
:101A3000870001080319252D403022008D008D01FB
:101A40002000921F202D9213152D28001E11080032
:101A50002000A7008D318B258D31A3302000A300FD
:101A60002308F400FA30A4002408F5002708A50094
:101A70002508F6002208A6002608F700A2308E31BD
:101A8000C1268D31F201F20A01308731A627080004
:101A9000F601F7010830890B4B2D21009D149D188C
:101AA0004F2D1C08F400F5017408F6047508F704BE
:101AB0000830F635F70D890B592D1B08F400F50198
:101AC0007408F6047508F7047708F3007608F20046
:101AD0000800F400772D22000E108E14080022005A
:101AE0000E148E10080022000E148E1408007408C4
:101AF000F200F3017308003A03197F2D8A2D720852
:101B0000003A03196B2D013A03196F2D033A03199B
:101B1000732D8A2D08002100921523008E110E13BB
:101B200021008E150E173200151124009C171C136E
:101B30003C008F011B303D00A60016303C009E008B
:101B40001A303D00A30013303C009D0028302400D3
:101B50009D00FE309A009E019F0108002000AC000D
:101B600001308D3169258D3120002A08AB002B080A
:101B7000A4002C088D31FE258D312000AD01A4017B
:101B800000308D31FE258D3101302000AB002B0857
:101B9000AD070B302D02031CBF2D02308D3169259E
:101BA00008002000A100A201A3012308803AF6004A
:101BB00080307602031DDE2D75082202031808000E
:101BC000200022082107F600760886008701010818
:101BD0008C313D248D31F70077082000A0002008CB
:101BE000F60022082107F7007708860087017608AB
:101BF00081000130A2070030A33DD52D2000A500B3
:101C0000A801A901A701A6012408F8007808F2009C
:101C10002830F9007908F30025088E31FC268D3133
:101C20000230F8007808F50028308D31D1252000E9
:101C30002808F8007808A7042908F8007808A604FE
:101C4000A70EF030A705A60E0F30A6052608F8004F
:101C50007808A704270808002000AD00AF012D0870
:101C6000AC002C08AF040310AF0D2F140310AF0D00
:101C70002A08AC002C08AF040310AF0D2B08AC00F1
:101C80002C08AF040310AF0D0310AF0D0310AF0D00
:101C9000AE012F08AC002C08A4000D308D31FE25BC
:101CA0008E3101302000AC002C08AE070C302E0223
:101CB00003180800492EF3008B130B132100921513
:101CC00023008E110E1321008E150E1732001511F0
:101CD00024009C131C133C008F017308F20072084F
:101CE000F4000310F40D740824009A001B303D002A
:101CF000A60016303C009E001A303D00A3001330B1
:101D00003C009D00263024009D009E012000921181
:101D10000B178B1708002000A900AA01AB012408AB
:101D2000A7002708F2002608F4002508F3002C304D
:101D3000A8002808F50029088F31BC278E31033010
:101D40002000A7002708F5002C308D31D1258E31D9
:101D500020002D08A700A8012708AA042808AB0422
:101D60000830AA35AB0D890BB12E2E08A700A801AB
:101D70002708AA042808AB042B08A5002A08A400F9
:101D800008002000A0007508F8007808F20020087C
:101D90008C3172248E318C310D248E3174082400E4
:101DA00099002000921DD12E9211A10177082102E5
:101DB0000318F92E24009E152000921DDC2E92118E
:101DC00024001908F800200021087607F900790896
:101DD000860087017808810024001C109E121E16C0
:101DE0002000921DF02E92110130F8007808A10712
:101DF000D62E8C3104240800F50073088600870174
:101E00008101730A8600870181017508F400730857
:101E10008600870174088104730886008701810E9B
:101E2000F03081057208F400730A86008701740897
:101E30008104730A86008701810E0F308105730AC1
:101E4000860087010108F400730886008701740882
:101E50008104730A8600870181017208F400730A05
:101E60008600870174088104730A86008701810E49
:101E7000F03081050800F400642F21008E17230044
:101E80008E1721001D0803395C389D0008002100D1
:101E90008D1723008D1721001D0803393C389D0044
:101EA000080022001716971621001D080339F43880
:101EB0009D00080021008C1623008C1621001D08AF
:101EC000033914389D0008007408F200F301730808
:101ED000003A03196C2F7A2F7208003A03193D2F2C
:101EE000013A0319472F033A0319512F013A0319F5
:101EF0005A2F7A2F08002000AF002F088C314D2474
:101F00008F312000AB002B08AC002F088C3121242E
:101F10008F312000AB002B08AD002D08031D952F3D
:101F20000430AB002B08AE00972FAE01AE0AB00113
:101F3000B00A2C0830020318A82FA40100308D31FC
:101F4000FE258F3101302000AB002B08B007992F00
:101F50002A08AB002B08A4002E088D31FE258F31F6
:101F600001302000AB002B08B0070D303002031801
:101F70000800A4010030AD2FF70075088600870126
:101F80008101750A8600870181017508023E86007D
:101F9000870181017708F6007508860087017608B9
:101FA00081047508860087010310810D0310810DDF
:101FB0007208031DE22F0330F600750886008701C2
:101FC000760881047508860087010310810D740866
:101FD000F9007308F8007808F6007508023E8600DC
:101FE0008701760881040830F936F80C890BF42F44
:101FF0007808F600750A86008701760881040800D3
:020000040001F9
:08000E008CFFF3FFFFDFFFFF91
:00000001FF
